{
  "contractName": "ContratoInicial",
  "abi": [
    {
      "constant": true,
      "inputs": [
        {
          "internalType": "uint256",
          "name": "",
          "type": "uint256"
        }
      ],
      "name": "perrosAdoptados",
      "outputs": [
        {
          "internalType": "address",
          "name": "",
          "type": "address"
        }
      ],
      "payable": false,
      "stateMutability": "view",
      "type": "function"
    },
    {
      "constant": false,
      "inputs": [
        {
          "internalType": "uint256",
          "name": "perroIndex",
          "type": "uint256"
        }
      ],
      "name": "adoptar",
      "outputs": [
        {
          "internalType": "bool",
          "name": "",
          "type": "bool"
        }
      ],
      "payable": false,
      "stateMutability": "nonpayable",
      "type": "function"
    },
    {
      "constant": true,
      "inputs": [],
      "name": "getPerrosAdoptados",
      "outputs": [
        {
          "internalType": "address[16]",
          "name": "",
          "type": "address[16]"
        }
      ],
      "payable": false,
      "stateMutability": "view",
      "type": "function"
    }
  ],
  "bytecode": "0x608060405234801561001057600080fd5b5061039a806100206000396000f3fe608060405234801561001057600080fd5b50600436106100415760003560e01c80633a05b9fc146100465780633a15b57f1461008c578063e56a8412146100d2575b600080fd5b6100726004803603602081101561005c57600080fd5b8101908080359060200190929190505050610140565b604051808215151515815260200191505060405180910390f35b61009461028e565b6040518082601060200280838360005b838110156100bf5780820151818401526020810190506100a4565b5050505090500191505060405180910390f35b6100fe600480360360208110156100e857600080fd5b810190808035906020019092919050505061030f565b604051808273ffffffffffffffffffffffffffffffffffffffff1673ffffffffffffffffffffffffffffffffffffffff16815260200191505060405180910390f35b60008082101580156101535750600f8211155b6101c5576040517f08c379a000000000000000000000000000000000000000000000000000000000815260040180806020018281038252600e8152602001807f46756572612064652052616e676f00000000000000000000000000000000000081525060200191505060405180910390fd5b600060019050600073ffffffffffffffffffffffffffffffffffffffff16600084601081106101f057fe5b0160009054906101000a900473ffffffffffffffffffffffffffffffffffffffff1673ffffffffffffffffffffffffffffffffffffffff16141561028057336000846010811061023c57fe5b0160006101000a81548173ffffffffffffffffffffffffffffffffffffffff021916908373ffffffffffffffffffffffffffffffffffffffff160217905550610285565b600090505b80915050919050565b610296610342565b6000601080602002604051908101604052809291908260108015610305576020028201915b8160009054906101000a900473ffffffffffffffffffffffffffffffffffffffff1673ffffffffffffffffffffffffffffffffffffffff16815260200190600101908083116102bb575b5050505050905090565b6000816010811061031c57fe5b016000915054906101000a900473ffffffffffffffffffffffffffffffffffffffff1681565b60405180610200016040528060109060208202803883398082019150509050509056fea265627a7a7231582061fc7a9752b2d97d4d961248dfa2f7ad4cdfa93be58f7bade0430890f324ab9564736f6c63430005100032",
  "source": "// SPDX-License-Identifier: MIT\npragma solidity >=0.4.22 <0.9.0;\n\ncontract ContratoInicial {\n  address[16] public perrosAdoptados;\n\n  function adoptar(uint perroIndex) public returns(bool){\n    require(perroIndex >=0 && perroIndex<= 15,\"Fuera de Rango\");\n    bool adoptarConExito=true;\n\n    if(perrosAdoptados[perroIndex] ==address(0)){\n      perrosAdoptados[perroIndex]= msg.sender;\n    }else{\n      adoptarConExito=false;\n    }\n    return adoptarConExito;\n\n  }\n\n  function getPerrosAdoptados() public view returns (address[16] memory){\n    return perrosAdoptados;\n  }\n}\n",
  "sourcePath": "C:\\Users\\Jorge Bencomo\\Desktop\\Enrique\\solidity\\contracts\\ContratoInicial.sol",
  "compiler": {
    "name": "solc",
    "version": "0.5.16+commit.9c3226ce.Emscripten.clang"
  },
  "schemaVersion": "3.4.10",
  "updatedAt": "2022-11-21T18:09:45.187Z",
  "networkType": "ethereum",
  "devdoc": {
    "methods": {}
  },
  "userdoc": {
    "methods": {}
  }
}